:0400000000408EC26C
:2000F500FFFFA80000000000FFFFA80100000000FFFFA80200000000FFFFA803000000004D
:20010500FFFFA80400000000FFFFA80500001234FFFFA80700000000FFFFA8080000567816
:20011500FFFFA80900000000FFFFA80A00000000FFFEA80C000000000000FFFEA80E000007
:2001250000000000FFFEA810000000000000FFFEA812000000000000FFFEA8140000000095
:200135000000FFFEA816000000000000FFFEA81A000000000000FFFEA81C0000000000006F
:20014500FFFEA81E000000000000FFFFAA8000000000FFFFAA8100000000FFFFAA8200005C
:200155000000FFFFAA8300000000FFFFAA8400000000FFFFAA8500000000FFFFAA860000D8
:200165000000FFFFAA8700000000FFFFAA8800000000FFFFAA8900000000FFFFAA8A0000B8
:200175000000FFFFAA8B000003F2FFFFAA8C00000001FFFFAA8D00000001FFFEAA8E0000A2
:2001850000000000FFFEAA90000000000000FFFEAA92000000000000FFFCAA9400000000B1
:20019500000000000000FFFFAA7600000001FFFEAA78000000000000FFFEAA7A00000000EB
:2001A5000000FFFFAA4100000000FFFFAA4200000000FFFFAA4300000000FFFEAA7C000059
:1A01B50003F80000FFFEAA7E000003F80000FFFFAAB00000007D0000000040
:2001C2007622761F17E01A2400011A2000031A20000C761F17E61800FFFD1800FFFE761FE7
:2001D200174892089003610992089003520261059208900352036009761F17E0CC00F0FFFE
:2001E2001AA9050096006F08761F17E0CC00F0FF1AA904009600761F17E61A0000021A00BC
:2001F2000001761F17ECCC00FFF0500A9600761AF6077700FF6900067622761F17E01820DB
:16020200FFFC1820FFF31824FFFE761A0006190156C3FFFF0006BB
:20020D00FE0476220200761F01F01E3C761F01F11E3C761F01F71E3C8F007C00A8422B432A
:20021D0092431BA9010067152901BE00901F5206610B924352236108523061065603014317
:20022D0007428AA9C2C40A4392431BA9010068EF8F007F00A8422B4392435220670C290127
:20023D00BE005603014307428AA9C2C40A439243522068F8761AFE840006FE107C43974292
:20024D009641901F964D9241900F964E92419007964F29018F007C009241FFC4FF845603DC
:20025D0001A9560100A4A84692425201666F9243520F69026F6B924DFFC3560301A9074686
:20026D0009061E48924DFFC3560301A9074609201E4A924DFFC2560301A9074609281E4CEF
:20027D00762202038A48FF5A5603014E16A9563BFF55FF5A92ABC0C492AAC0CC0203FF5A0D
:20028D008A4A5603014E16A9563BFF55FF5A92ABC0C492AAC0CC0203FF5A9243FFC188A92B
:20029D008A4AA9A989A6FF5A5603014E16A9563BFF5A92AB98C492AA98CC020389438A4866
:2002AD00FF5A5603014E16A9563BFF5A92AB98C492AA98CC0203FF5A8A4C5603024F16A9B1
:2002BD00563BFF55FF5A92ABC0C492AAC0CC020389428A4CFF5A5603024F16A9563BFF5A08
:2002CD0092AB98C492AA98CC761AFE900006FE187C4397429641901F0EA91E529241900FE7
:2002DD000EA91E542D520201563B1E5629018F007C009241FFC4FF84560301A9560100A405
:2002ED00A846020A07461E48020C07461E4A021007461E4C021207461E4E0652FF43FF3022
:2002FD00074609021E5076228A480656FF55C0C4C1CC92425201601F8A48065698C499CC5B
:20030D0042436C068A4E065698C499CC6F068A4E0656FF55C0C4C1CC9243900561078A4A30
:20031D000656FF55C0C4C1CC6F238A4A065698C499CC6F1E8A480656FF55C0C4C1CC4043D9
:20032D006C078A4A0656FF55C0C4C1CC6F058A4A065698C499CC41436C068A4C065698C4BF
:20033D0099CC6F068A4C0656FF55C0C4C1CC92439030FFC30EA91E5802038A50FF5A56031A
:20034D00015416A9563BFF55FF5A92ABC0C492AAC0CC0658610CA358560301548A5016A9A8
:20035D00563BFF5A92AB98C492AA98CC761AFE980006FE0A97429641901F0EA91E482D4838
:20036D000201563B1E4A29018F007C009241FFC4FF84560301A9560100A4A844023C0744B3
:20037D001E467622924261068A46064A98C499CC6F068A46064AFF55C0C4C1CC761AFE8A36
:20038D000006FE0296417622761F01E49603761AFE820006FE0296417622761F01E496042F
:20039D00761AFE820006FE0296417622761F01E49605761AFE820006FE0296417622761F8C
:2003AD0001E4960C761AFE820006FE0296417622761F01E4960D761AFE820006FE06964116
:2003BD00FFC429018F007F00FF81560301A9560100A4A8449241901F2DA906C456221EA65D
:2003CD0092A690019645FE860006FE0697429641FFC429018F007F00FF81560301A9560159
:2003DD0000A4A84402011EA69241901F2DA906A6563B1E469242600406461EE46F0306466C
:1E03ED001ED4FE860006761F02A9A83E0006761F02A9A83C000600069A010006000673
:20800000761BFFF0E20000BDE63006002942561676256F00761BFFF0E20000BDE630060009
:208010002942561676256F00761BFFF0E20000BDE63006002942561676256F00761BFFF0D3
:20802000E20000BDE63006002942561676256F00761BFFF0E20000BDE63006002942561692
:2080300076256F00761BFFF0E20000BDE63006002942561676256F00761BFFF0E20000BDEB
:20804000E63006002942561676256F00761BFFF0E20000BDE63006002942561676256F0007
:20805000761BFFF0E20000BDE63006002942561676256F00761BFFF0E20000BDE6300600B9
:208060002942561676256F00761BFFF0E20000BDE63006002942561676256F00761BFFF083
:20807000E20000BDE63006002942561676256F00761BFFF0E20000BDE63006002942561642
:2080800076256F00761BFFF0E20000BDE63006002942561676256F00761BFFF0E20000BD9B
:20809000E63006002942561676256F00761BFFF0E20000BDE63006002942561676256F00B7
:2080A000761BFFF0E20000BDE63006002942561676256F00761BFFF0E20000BDE630060069
:2080B0002942561676256F00761BFFF0E20000BDE63006002942561676256F00761BFFF033
:2080C000E20000BDE63006002942561676256F00761BFFF0E20000BDE630060029425616F2
:2080D00076256F00761BFFF0E20000BDE63006002942561676256F00761BFFF0E20000BD4B
:2080E000E63006002942561676256F00761BFFF0E20000BDE63006002942561676256F0067
:2080F000761BFFF0E20000BDE63006002942561676256F00761BFFF0E20000BDE630060019
:208100002942561676256F00761BFFF0E20000BDE63006002942561676256F00761BFFF0E2
:20811000E20000BDE63006002942561676256F00761BFFF0E20000BDE630060029425616A1
:2081200076256F00761BFFF0E20000BDE63006002942561676256F00761BFFF0E20000BDFA
:20813000E63006002942561676256F00761BFFF0E20000BDE63006002942561676256F0016
:20814000761BFFF0E20000BDE63006002942561676256F00761BFFF0E20000BDE6300600C8
:208150002942561676256F00761BFFF0E20000BDE63006002942561676256F00761BFFF092
:20816000E20000BDE63006002942561676256F00761BFFF0E20000BDE63006002942561651
:2081700076256F00761BFFF0E20000BDE63006002942561676256F00761BFFF0E20000BDAA
:20818000E63006002942561676256F00761BFFF0E20000BDE63006002942561676256F00C6
:20819000761BFFF0E20000BDE63006002942561676256F00761BFFF0E20000BDE630060078
:2081A0002942561676256F00761BFFF0E20000BDE63006002942561676256F00761BFFF042
:2081B000E20000BDE63006002942561676256F00761BFFF0E20000BDE63006002942561601
:2081C00076256F00761BFFF0E20000BDE63006002942561676256F00761BFFF0E20000BD5A
:2081D000E63006002942561676256F00761BFFF0E20000BDE63006002942561676256F0076
:2081E000761BFFF0E20000BDE63006002942561676256F00761BFFF0E20000BDE630060028
:2081F0002942561676256F00761BFFF0E20000BDE63006002942561676256F00761BFFF0F2
:20820000E20000BDE63006002942561676256F00761BFFF0E20000BDE630060029425616B0
:2082100076256F00761BFFF0E20000BDE63006002942561676256F00761BFFF0E20000BD09
:20822000E63006002942561676256F00761BFFF0E20000BDE63006002942561676256F0025
:20823000761BFFF0E20000BDE63006002942561676256F00761BFFF0E20000BDE6300600D7
:208240002942561676256F00761BFFF0E20000BDE63006002942561676256F00761BFFF0A1
:20825000E20000BDE63006002942561676256F00761BFFF0E20000BDE63006002942561660
:2082600076256F00761BFFF0E20000BDE63006002942561676256F00761BFFF0E20000BDB9
:20827000E63006002942561676256F00761BFFF0E20000BDE63006002942561676256F00D5
:20828000761BFFF0E20000BDE63006002942561676256F00761BFFF0E20000BDE630060087
:208290002942561676256F00761BFFF0E20000BDE63006002942561676256F00761BFFF051
:2082A000E20000BDE63006002942561676256F00761BFFF0E20000BDE63006002942561610
:2082B00076256F00761BFFF0E20000BDE63006002942561676256F00761BFFF0E20000BD69
:2082C000E63006002942561676256F00761BFFF0E20000BDE63006002942561676256F0085
:2082D000761BFFF0E20000BDE63006002942561676256F00761BFFF0E20000BDE630060037
:2082E0002942561676256F00761BFFF0E20000BDE63006002942561676256F00761BFFF001
:2082F000E20000BDE63006002942561676256F00761BFFF0E20000BDE630060029425616C0
:2083000076256F00761BFFF0E20000BDE63006002942561676256F00761BFFF0E20000BD18
:20831000E63006002942561676256F00761BFFF0E20000BDE63006002942561676256F0034
:20832000761BFFF0E20000BDE63006002942561676256F00761BFFF0E20000BDE6300600E6
:208330002942561676256F00761BFFF0E20000BDE63006002942561676256F00761BFFF0B0
:20834000E20000BDE63006002942561676256F00761BFFF0E20000BDE6300600294256166F
:2083500076256F00761BFFF0E20000BDE63006002942561676256F00761BFFF0E20000BDC8
:20836000E63006002942561676256F00761BFFF0E20000BDE63006002942561676256F00E4
:20837000761BFFF0E20000BDE63006002942561676256F00761BFFF0E20000BDE630060096
:208380002942561676256F00761BFFF0E20000BDE63006002942561676256F00761BFFF060
:20839000E20000BDE63006002942561676256F00761BFFF0E20000BDE6300600294256161F
:2083A00076256F00761BFFF0E20000BDE63006002942561676256F00761BFFF0E20000BD78
:2083B000E63006002942561676256F00761BFFF0E20000BDE63006002942561676256F0094
:2083C000761BFFF0E20000BDE63006002942561676256F00761BFFF0E20000BDE630060046
:2083D0002942561676256F00761BFFF0E20000BDE63006002942561676256F00761BFFF010
:2083E000E20000BDE63006002942561676256F00761BFFF0E20000BDE630060029425616CF
:2083F00076256F00761BFFF0E20000BDE63006002942561676256F00761BFFF0E20000BD28
:20840000E63006002942561676256F00761BFFF0E20000BDE63006002942561676256F0043
:20841000761BFFF0E20000BDE63006002942561676256F00761BFFF0E20000BDE6300600F5
:208420002942561676256F00761BFFF0E20000BDE63006002942561676256F00761BFFF0BF
:20843000E20000BDE63006002942561676256F00761BFFF0E20000BDE6300600294256167E
:2084400076256F00761BFFF0E20000BDE63006002942561676256F00761BFFF0E20000BDD7
:20845000E63006002942561676256F00761BFFF0E20000BDE63006002942561676256F00F3
:20846000761BFFF0E20000BDE63006002942561676256F00761BFFF0E20000BDE6300600A5
:208470002942561676256F00761BFFF0E20000BDE63006002942561676256F00761BFFF06F
:20848000E20000BDE63006002942561676256F00761BFFF0E20000BDE6300600294256162E
:2084900076256F00761BFFF0E20000BDE63006002942561676256F00761BFFF0E20000BD87
:2084A000E630060029425616E28000BEFFF176177602761BFFF0E20000BDE630060029420E
:2084B000561676256F00764085589A01D400D5019B0A76408565764001C2764084C00006A0
:2084C0007622761F174C1A2200011A2200041A2200081A2200101A2200201A2300011A2328
:2084D00000041A2600011A2600021A2600041A2600081A2600101A2600201A2600401A2609
:2084E00000801A2800011A2800021A2800041A2800081A2800101A2800201A2800401A2A6B
:2084F00000011A2A00021A2E00011A3000011A3000021A3200011A3200021A3400011A360B
:2085000000011A3600021A3C00011A3C00021A3C00041A3E00011A3E00021A3E00041A3E98
:2085100000081A3E00101A3E00201A3E0040761F174D1A0000011A0000021A0000041A0063
:2085200000081A0000101A0000201A0000401A0300011A0300021A0800011A0A00011A0CCA
:208530000001761A000676220200761F174C1E221E261E281E2A1E2E1E301E321E341E3660
:208540001E3C1E3E761F174D1E001E021E081E0A1E0C761A00067622761F01C0CC25FF0042
:2085500050559625CC25FF0050AA9625761A0006FE027622761F01C0922990079641924186
:2085600050689629761AFE820006FE0E7D447C4397429641761F1748920890030EA91EA696
:208570009241900380A906A60FA76021CC320002FFC00EA91EA692419004FFC180A906A643
:208580000FA7601588429214907F0EA90FA6600F8843CC140300FFC70EA90FA66008884442
:208590009222903F0EA90FA6FFE1009A920890030EA91EA69241900380A906A60FA7601A4F
:2085A000CC320002FFC00EA91EA692419004FFC180A906A60FA761166F0D764086516F12CE
:2085B0007640865C6F0F764086836F0C764086A36F09924161F6520161F7520261EF520534
:2085C00061F67622761F174888429214907F0EA90FA660088843CC140300FFC70EA90FA685
:2085D000613B180EFFFD1822FFC056030843CA420EA91E4ABE000264C2480F48692F761F53
:2085E0001748180EFFFD064A1E141A0E00018F0007D0A846921690010EA91E4C6F08921682
:2085F00090010EA91E4C02015641004602010F4C6103064660F5761A92415C4393427640E9
:2086000086D2964D924D600A020107481E4802640F4866D66F0356BF014D924D6120762258
:208610009244523F610A761F17489C01CD22FFC0903FCAA896226F08761F1748903FCD2217
:20862000FFC0CAA896221A0E0002F66477009244CD22FFC0903FCAA89622761AFE8EFF6955
:20863000000676220200761F17C019011E10020019011E12020019011E14020019011E16EC
:208640000200761F17C119011E10020019011E12020019011E14020019011E16761A9A004F
:2086500000067622761F1748CC08FFFC500296081A320001761A00067622761F174818082A
:20866000FFF71808FFFC1A320001761A0006FE022B418F0007D0A8A9764002096F031A3165
:2086700000018F0001FF761F1748A8A90F3068F88F0003FFA8A90F3060FE0A419241520483
:2086800068F1FE8200067622761F17481832FFFE1832FFFD761A764086677622CC08FFFC48
:2086900050019608761A6F0D76221A2E0002761A764086677622CC08FFFC50019608761AD4
:2086A000402E6DF300067622761F17481832FFFE1A320002761A764086677622CC08FFFC2B
:2086B00050019608761A402E6C027625FF6900067622761F174D1836FFFC761A7621FF69DD
:2086C00000067622761F174DCC36FFFC50029636761F1748180EFFFD180EFFFE761A762188
:2086D000FF690006FE0A7C439742964102621E4602041E4A2D4235640EA91E486F0D0219B3
:2086E00007481E486F10023207481E486F0C024B07481E486F089243520161F2520261F445
:2086F000520361F67622761F174D1A0C0001761F179C1A1400011A140002CC00FFF050054F
:208700009600CC00FF0F50509600CC000FFF1AA9500096006F0ECC28FFF0500196286F1141
:20871000CC28FFF0500296286F0C1828FFF06F09924161F7520161FA520261EE520561F60A
:20872000CC240FFF1AA9A00096241824FFF0A3468F05E70818AA000F06C45608FFF0CAAB2A
:20873000CBAA1EC4924A960CA3488F05E71018AA000F06C45608FFF0CAABCBAA1EC4CC005E
:20874000F0FF1AA90A009600CC00FF0F50A09600CC000FFF1AA9A0009600CC00FFF0500A7F
:208750009600761A06149B009003FF5861FC061428AB00022BAA9B009003BE00B6000FABC7
:208760006002B60193A76102BE0192A6FE8A0006FE022B4192415232630C3B018F00AA44D3
:20877000A8A981418AA92BC40A419241523264F79A00761F02A996019603FE820006FE0227
:2087800096418F00AA443B01761F02A98841A8A981018AA97EC40A019201523260022B0148
:208790009201540360070A039203523260132B036F1192035401620592019E0396426F0560
:2087A00092019E039C32964292025442630392429602FE820006FE02761F02A988038F0003
:2087B000AA443B01A8A981A61EA70A0392C796419203523260022B039241FE820006FE0203
:2087C0009641764087D9544162039A006F119241761F02A994039642523264039A327442A9
:2087D0008F00AA443B01A8A981428AA992C4FE820006761F02A992035401620492019E03E9
:1A87E0006F0492019E039C320006761F02A99A009303550160029A0100063B
:20880000761BFFF00005ABBDA8BDA0BDC2BDC3BDE20000BDE20300BDE20301BDE20302BD22
:20881000E20303BDE6300600FE06FF6929425616761F01C847056C2745056C04761F02AA0C
:208820000A03761F01C844056C04761F02AA0A0A761F01C843056C04761F02AA0A04761FC5
:2088300001C842056C04761F02AA0A00761F01C81801FFDF1A010020761F003328210100BB
:20884000FFEF031846056C069207761F02AA96016F0A761F02AA0A02761F00332821010009
:20885000FFEF030892086072920152E7600656BF01082B05FFEF02FA52DB6023020156012F
:20886000000EC50E92C79609FFC77640877F761F02AA92097640877F9A0D7640877F761F0D
:2088700002AA2B08761F01C84704FFEC02DF56BF0304764087AB761F01C89609FFEF02D6CD
:208880005228602F02085601000E2B459245520867140E45761F02AA070E1EA792C79609DE
:20889000FFC77640877F761F02AA92097640877F0A459245520868EE9A0D7640877F761FE0
:2088A00002AA2B08761F01C84704FFEC02AF56BF0304764087AB761F01C89609FFEF02A6FD
:2088B00052BD600902015601000E56BF02082B06FFEF029C5299FFE0029902025601000E1E
:2088C00056BF03082B06FFEF02915201FFE000FF0A059205520160070E011E0EFF3F1E0E90
:2088D000FFEF028452026008560308010EA9980E990FFFEF027B520360060E01980E990F6E
:2088E000FFEF02745204FFE000DF920152DB6020C50E92C79609FFC77640877F761F02AA32
:2088F00092097640877F9A0D7640877F761F02AA2B08761F01C84704FFEC025856BF030430
:20890000764087AB761F01C89609FFEF024F52C3602D8A0E92CC9609FFC77640877F761FE5
:2089100002AA92097640877F761F02AAC50E92C79609FFC77640877F761F02AA9209764024
:20892000877F9A0D7640877F761F02AA2B08761F01C84704FFEC022A56BF0304764087AB96
:20893000761F01C89609FFEF0221528B60478A0E92DC9609FFC77640877F761F02AA920992
:208940007640877F761F02AA8A0E92D49609FFC77640877F761F02AA92097640877F761FCE
:2089500002AA8A0E92CC9609FFC77640877F761F02AA92097640877F761F02AAC50E92C73F
:208960009609FFC77640877F761F02AA92097640877F9A0D7640877F761F02AA2B08761FD2
:2089700001C84704FFEC01E256BF0304764087AB761F01C89609FFEF01D95228602C2B45C6
:208980009245520867140E45761F02AA070E1EA792C79609FFC77640877F761F02AA920967
:208990007640877F0A459245520868EE9A0D7640877F761F02AA2B08761F01C84704FFECCA
:2089A00001B556BF0304764087AB761F01C89609FFEF01AC52BD600656BF02082B06FFEFB2
:2089B00001A55299600656BF03082B06FFEF019E5264600656BF05082B06FFEF01972B08AA
:2089C000FFEF01942B08FFEF01915202604C0A06920652016006560308019609FFEF01868A
:2089D0005202600592019809FFEF018052036006560308019607FFEF0179520460059201BB
:2089E0009807FFEF01735205602B9201527E602588070E09070E91000FA6600B8A0E92090D
:2089F00096C49A0D7640877F761F02AA2B086F079A3C7640877F761F02AA2B08761F01C85C
:208A00004704FFEC015356BF0304764087AB761F01C89609FFEF014A2B08FFEF01472B08F6
:208A1000FFEF0144520360620A069206520160070E011E10FF371E10FFEF01385202600915
:208A20000E01981099110610FF371E10FFEF012E520360090E01981099110610FF371E10A5
:208A3000FFEF0124520460060E0198109911FFEF011D52056006560308019607FFEF011629
:208A40005206600592019807FFEF01105207602B9201527E602588070610070E91000FA65C
:208A5000600B8A0E06101EC49A0D7640877F761F02AA2B086F079A3C7640877F761F02AAEB
:208A60002B08761F01C84704FFEC00F056BF0304764087AB761F01C89609FFEF00E72B0836
:208A7000FFEF00E42B08FFEF00E15205FFE000DD0A0692065201600E0E011E142B162B17D2
:208A800028AC0008A31406165652A9141E16FFEF00CD520260130E011E442B42A3142B410B
:208A9000061600C0903BA9141E1628AC0008A3145652A9141E16FFEF00B9520360130E0184
:208AA0001E442B42A3142B41061600C0903BA9141E1628AC0008A3145652A9141E16FFEF12
:208AB00000A5520460130E011E442B42A3142B41061600C0903BA9141E1628AC0008A3140C
:208AC0005652A9141E16FFEF0091520560120E011E442B42A3142B41061600C0903BA91450
:208AD0001E1628AC0008A3145652A9141E166F7D520660120E011E442B42A3142B41061653
:208AE00000C0903BA9141E1628AC0008A3145652A9141E166F6A520760120E011E442B424C
:208AF000A3142B41061600C0903BA9141E1628AC0008A3145652A9141E166F575208600CF3
:208B00000E011E442B42A3142B41061600C0903BA9141E166F4A5209600556030801960744
:208B10006F44520A6004920198076F3F520B603A9201527E6035A30E02008807B60056575E
:208B200000145640001618ABFFFF18AA000090009100A9441E42A3A606A700C08FEF5200FE
:208B3000600D8A0EC41606141EC4C2D49A0D7640877F761F02AA2B086F079A3C7640877FD5
:208B4000761F02AA2B08761F01C847046C0E56BF0304764087AB761F01C896096F062B08D5
:208B50006F042B086F022B08761F003328210100FE86E2AF03BEE2AF02BEE2AF01BEE2AFA1
:208B600000BEE28000BEC5BEC4BE83BE8ABE87BE00033B30FFF176177602761BFFF000055C
:208B7000ABBDA8BDA0BDC2BDC3BDE20000BDE20300BDE20301BDE20302BDE20303BDE63079
:208B80000600FF6929425616764087E55200600F761F01C847046C07764087AB761F01C84B
:208B900096096F09761F02AA0A026F05761F01C856BF0204761F003328210100E2AF03BE10
:208BA000E2AF02BEE2AF01BEE2AF00BEE28000BEC5BEC4BE83BE8ABE87BE00033B30FFF174
:208BB000761776027622761F17E01A2400011A2000031A20000C761F17E61800FFFD1800FC
:208BC000FFFE761F17E0CC00F0FF1AA905009600761F17E61A0000021A000001761F17EC92
:208BD000CC00FFF0500A9600761AF6077700FF690006FE0856BF1C432B448F05F00006C431
:208BE0001E42FF321E423B016F16064256088000600E56BF01449243761F02A09C035603D1
:208BF00004A985A9FF1F000F1E166F050B430642FF301E4292446003924363E892446006FB
:208C00008F078020761F02A0A8162B472B4792475204670F290156030147761F02A0071681
:208C10008AA9D01006941E460A479247520468F47622761F02A00620761F17C01E10761F33
:208C200002A00622761F17C01E12761F02A00624761F17C01E14761F02A00626761F17C000
:208C30001E16761A56BF1C432B448F05F04006C41E42FF321E423B016F1606425608800017
:208C4000600E56BF01449243761F02A09C03560304A985A9FF1903C11E1C6F050B4306424D
:208C5000FF301E4292446003924363E8924460068F078220761F02A0A81C2B47924752040C
:208C6000670F290156030147761F02A0071C8AA9D01006941E460A479247520468F47622D4
:208C7000761F02A00630761F17C11E10761F02A00632761F17C11E12761F02A00634761FCA
:208C800017C11E14761F02A00636761F17C11E16761A761F17C0CC190020FFC45201600837
:208C9000761F17C1CC190020FFC4520161039A006F0D761F17C19230900361079230900343
:208CA000520361039A006F029A01FE880006FE029641520060089A00767FFEFE761F02A076
:208CB00096066F0E520160089A01767FFEFE761F02A096066F05761F02A01A1208009206FA
:208CC000611528A901FA540660041A1201006F0E28A901F8540660041A1200406F0728A9AF
:208CD00001F6540660031A120080061261039A006F029A01FE8200067622761F17EC180034
:208CE000FFF08F05F8000264767FFEFC761F02A0960602001E12920661031A1200209A00BD
:208CF00076408CA7761A0006FE1002001E462B472B482B491E4C1E4E1E50761F02A0920407
:208D00005201602276220A010A0402001E128A1A9A06767FFF00761F02A09606767FFF108C
:208D1000520260FD761F02A0920661031A120200767FFF12761F02A01E18061861031A1210
:208D200002000A04761A92035201FFE000BC76220A0A0A0302001E128F000200A8A90F1E16
:208D30006702A81E2B492B06BE04061A9B00900F0FA66107BE0C061A9B00900F0FA6602FAE
:208D400056BF014902001E428A1A8F40A8409A049B002B43767FFF04761F02A09606767F90
:208D5000FF10520161FD761F02A09206611828A901FD540660041A1200026F1128A901FEF0
:208D6000540660041A1200046F0A28A901FF540660041A1200086F031A12000192496111DD
:208D70000204071A1E4C02040F1E6605061E19041E4E6F0302001E4E8F00A844A8506F083D
:208D8000061A1E4C061E1E4E8F00A840A850064C2B471E466F4F064E074C19080F466810CF
:208D900002001E422B430E478A46075083A99A089B00767FFF04761F02A096066F110200C1
:208DA0001E422B430E478A46075083A9924E9B00944C9E46767FFF04761F02A09606767F3E
:208DB000FF10520161FD761F02A09206611928A901FD540660041A1200026F2228A901FE7E
:208DC000540660041A1200046F1B28A901FF540660041A1200086F141A1200016F11767F33
:208DD000FF12761F02A01E1808470008020807461E46064E074C0F466903920661AD0A03D8
:208DE000761A92095201604376220A070A0902001E121E141E0C1E101E0E8F000200A8A9CC
:208DF0000F1E6702A81E061A2B471E466F268F00A8282901A8428F40A8409247FFC0560361
:208E000001A98A46560100A50204767FFF08761F02A096065200610C1A12001006281E14AC
:208E1000062A1E0C062C1E0E062E1E106F0E02080847000807461E46761F02A0061E071A1D
:208E20000F466903920661D40A09761A92005201601176220A0002001E1276408BD952006B
:208E30006005761F02A01A120400761F02A00A00761A92025201602676220A0202001E1242
:208E40001E141E0C1E101E0E8F000200A8A90F1E6702A81E8A1A061E8F40A828767FFF02C1
:208E5000761F02A096065200610B1A12001006281E14062A1E0C062C1E0E062E1E100A02AF
:208E6000761AFE900006FE02761F01C856BF01031A0C20001A0C4000CC0C8000FFCE520133
:208E700060FC1A0C4000180CDFFFCC050040FFC5520160FCC607964193093CA89709FE8256
:208E800000067622761F174C1A300001761A9A1CD4019B007640024A9A1CD4009B0076405E
:208E900002D49A1DD4019B007640024A9A1DD4309B01764002D4761F01C856BF070056BF51
:208EA00043011A0400011A04000256BF630176408E637622761F00378F008800A8008F005D
:208EB0008B6DA802761A761F00331A2000011A3200011A320002762301002910FF697640E1
:208EC0008768000628AD0400FF69561F5616561AE61002002940761F00002902761B7640A3
:208ED00003F952006142762228A900F528A800000901611B76C000F529046F0F9B0024A99F
:208EE000DF016C04290424A8DF011EA6F7A1248606A781A109011EA724A96303FF5C3B04D8
:208EF00059A9DF010009FFEC28A9FFFF28A8FFFF090161058F3FFFFF76408F18761A764010
:208F000003FB28A9FFFF28A8FFFF0901610E76FFFFFF6F06DF01C3BD1EA73E67C5BE24A93B
:208F1000DF0124A8FF5860F77640901A76408F8EB2BDAABDFE0486A4D10088CA6F392901BD
:208F2000560303A107A209028AA992C460039A006F029A0293CCB60056B001A794A7611F6F
:208F3000520161155202610B5203602106E41E4206F41E4406D4764090006F1806E41E422B
:208F400006F41E4406D4764090006F1006E41E4206F41E4406D4764090006F0806E41E428F
:208F500006F41E4406D47640900088CAD90192A654A166C6FE8486BE8BBE0006FE04A04405
:208F6000A84206440F42690C8A429284A8428A48C4A4DE01C24896C406440F4266F6FE8435
:208F70000006764085589A00D400D5009B0A764085657640020D3B10FF6976408FB57626B2
:208F80000000762F000076408BB276408CDC76408E8176408CF46FFE77006F00B2BD761FC9
:208F900002A959A99236610D28ABFFFF28AAFFFF28A9FFFF28A8FFFF0FAB6103767FFFFF8F
:208FA000761F02A9C53C3E67761F02A9063A61041EA792A13E67761F02A9063861031EA7A2
:208FB0003E6776408F8C8BBE00063B10761F00331820FFFE2B222B242B262B282B2A2B2CA8
:208FC0002B2E2B302B322B342B362B382B232B252B272B292B2B2B2D2B2F2B312B332B35F7
:208FD0002B372B39FF690006761F00331A2000012821FFFF2910FF69000628ACFFFF0F4239
:208FE0006009A9A90F4456B100AC56B601AC92AC762056B100AC56B201AC92AC762028AC13
:168FF000FFFF0F426003A9A90F4456B100AC56B601AC92AC7620D4
:209000001EA78A440646520061049CFFF7A924845300611027462BAA565700A7A9A7248485
:20901000DF0128A9FFFEF7A9248408AA0001FFD0EDF6000628ABFFFF28AAFFFF28A9FFFF6F
:2090200028A8FFFF0FAB6004BE00D4006F0928ABFFFF28AAFFFFA9A488C409028AA992A68A
:2090300076408F710006C141C0420644CFAACEABFF5A06427620994198420644CBAACAAB05
:16904000FF5A06427620F341F242064471AA70ABFF5A06427620C4
:00000001FF
